:020000040800F2
:10000000005000203113000801520008035200087C
:1000100005520008075200080952000800000000BD
:100020000000000000000000000000000B5200086B
:100030000D520008000000000F5200081152000885
:10004000791300087913000879130008A90D000836
:100050007913000879130008791300087913000850
:100060007913000879130008791300087913000840
:100070007913000879130008791300087913000830
:100080007913000879130008791300087913000820
:100090002152000879130008791300087913000829
:1000A0007913000879130008791300087913000800
:1000B00079130008450F0008791300087913000828
:1000C00079130008791300087913000879130008E0
:1000D00079130008791300087913000879130008D0
:1000E0007913000879130008791300080000000054
:1000F0000000000000000000000000000000000000
:0C01000000000000000000005FF808F1A3
:10010C0010B5054C237833B9044B13B10448AFF345
:10011C0000800123237010BDF805002000000000B2
:10012C00588C000808B5034B1BB103490348AFF3C7
:10013C00008008BD00000000FC050020588C000861
:10014C00034613F8012B002AFBD1181A013870470B
:10015C0010F8012B11F8013B012A28BF9A42F7D065
:10016C00D01A70477BB972B90029BEBF00204FF07E
:10017C00004106E008BF00281CBF6FF000414FF0A3
:10018C00FF3000F0A7B9ADF1080C6DE904CE0029E1
:10019C0009DB002B1ADB00F035F8DDF804E0DDE9B3
:1001AC00022304B07047404261EB4101002B1BDB82
:1001BC0000F028F8DDF804E0DDE9022304B0404249
:1001CC0061EB4101524263EB43037047524263EBD4
:1001DC00430300F017F8DDF804E0DDE9022304B076
:1001EC00404261EB41017047524263EB430300F024
:1001FC0009F8DDF804E0DDE9022304B0524263EBB8
:10020C00430370472DE9F0478C460446089E002BAB
:10021C004BD18A42154667D9B2FA82F24AB1C2F181
:10022C00200701FA02F320FA07F7954047EA030C7E
:10023C0094404FEA154EBCFBFEF71FFA85F80EFBF7
:10024C0017C307FB08F9210C41EA0343994509D967
:10025C00EB1807F1FF3180F01C81994540F21981B0
:10026C00023F2B44A3EB0903B3FBFEF00EFB103350
:10027C0000FB08F1A4B244EA0344A14209D92C19A9
:10028C0000F1FF3380F00781A14240F20481023873
:10029C002C4440EA07400027641A1EB10023D440C6
:1002AC00C6E900433946BDE8F0878B4209D9002ED8
:1002BC0000F0EC800027C6E9000138463946BDE85D
:1002CC00F087B3FA83F7002F48D18B4202D38242D6
:1002DC0000F2FB80841A61EB030301209C46002E84
:1002EC00E0D0C6E9004CDDE702B9FFDEB2FA82F2DB
:1002FC00002A40F08F800127491B4FEA15481FFA4E
:10030C0085F9B1FBF8FE08FB1E1109FB0EF04FEA54
:10031C00144C4CEA0143984207D9EB180EF1FF310B
:10032C0002D2984200F2CD808E461B1AB3FBF8F035
:10033C0008FB103309FB00F9A4B244EA0344A145BD
:10034C0007D92C1900F1FF3302D2A14500F2B68077
:10035C001846A4EB090440EA0E409EE7C7F12005BD
:10036C00BB4022FA05FC4CEA030C21FA05F44FEAD7
:10037C001C4EB4FBFEF91FFA8CF80EFB194420FA44
:10038C0005F3B94009FB08FA19430B0C43EA044482
:10039C00A24502FA07F200FA07F30BD91CEB04048E
:1003AC0009F1FF3080F08880A24540F28580A9F1E8
:1003BC0002096444A4EB0A04B4FBFEF00EFB1044E7
:1003CC0000FB08FA89B241EA0444A24508D91CEBA7
:1003DC00040400F1FF316BD2A24569D902386444A0
:1003EC0040EA0940A0FB0289A4EB0A044C454146B3
:1003FC00CE4654D351D0002E69D05A1A64EB0E0459
:10040C0004FA05F522FA07F3FC401D43C6E9005433
:10041C00002747E79540C2F1200321FA03F04FEA89
:10042C001548B0FBF8F71FFA85F908FB170024FAFA
:10043C0003F3914007FB09FC0B43190C41EA004103
:10044C008C4504FA02F407D9691807F1FF3031D250
:10045C008C452FD9023F2944A1EB0C01B1FBF8F0DC
:10046C0008FB101C00FB09FE99B241EA0C418E45B9
:10047C0007D9691800F1FF3318D28E4516D9023806
:10048C002944A1EB0E0140EA07473AE737463046CC
:10049C0008E70F46E6E61846FBE64345ABD2B8EB59
:1004AC00020169EB0C0201389646A4E71846E8E70E
:1004BC00084695E70746CFE781467BE702382C4490
:1004CC0047E7AEF1020E2B442FE7384607E73746D5
:1004DC00E8E600BF704700BF08B580B1D0F8143211
:1004EC0013B10023C0F8143209B1C0F81012012363
:1004FC00027080F8FC3104F0C1F9002008BD022024
:10050C00FCE719B1C0F814120020704702207047A4
:10051C0008B504F0FBF9002008BD08B5D0F814327A
:10052C000BB9022008BD1B6898470028FAD0F8E7E1
:10053C0008B5D0F814325B689847002008BD38B570
:10054C0000F502750446284600F061FA012394F880
:10055C000812C4F8F431B4F80E32C4F8F83101F0D2
:10056C001F03012B0ED007D3022B10D001F08001FA
:10057C00204604F0F7F903E02946204600F0D6F8AF
:10058C00002038BD2946204600F0CAF9F8E7294674
:10059C00204600F0DDF9F3E738B50446154611BBEB
:1005AC00D0F8F431032B0FD1D0F80C31D0F8102146
:1005BC0093420BD99B1A9A4228BF1A46C0F80C31A9
:1005CC0092B2294600F077FA002038BDD0F81432E8
:1005DC001B6923B190F8FC21032A00D198472046CF
:1005EC0000F071FAF0E7D0F814329B69002BEBD0D5
:1005FC0090F8FC21032AE7D19847E5E770B513463C
:10060C0004460E4600293DD1D0F8F421022A0FD120
:10061C00D0E90752954214D9AA1AC261194692B26E
:10062C0000F032FA33461A461946204604F0E2F935
:10063C0094F80032012B02D1002384F80032002000
:10064C0070BD8369B3FBF2F502FB153565B99A42AF
:10065C000AD8D0F8F821934206D22A4600F014FAB0
:10066C00C4F8F8512B46DEE7D4F81432DB682BB112
:10067C0094F8FC21032A01D120469847204600F02B
:10068C002DFAD5E7D0F814325B69002BD7D090F84F
:10069C00FC21032AD3D19847D1E7002238B5044670
:1006AC0040251146402304F03FF92B46C4F8105165
:1006BC0000228021204604F037F9012384F8FC3114
:1006CC00D4F8183225622BB1D4F8143221795B6836
:1006DC0020469847002038BD01740020704790F8E0
:1006EC00FC3180F8FD31042380F8FC310020704788
:1006FC0090F8FD3180F8FC310020704708B590F877
:10070C00FC21032A04D1D0F81432DB6903B19847D9
:10071C00002008BD10B50446802104F023F92046C2
:10072C00BDE81040002104F01DB9000037B54B782E
:10073C0004460D46092B76D8DFE813F0C900E50016
:10074C007500D90075006D000A007500B9008D00A8
:10075C004B881A0A013A062A65D8DFE802F0041C15
:10076C00296464495200D0F810321B680DF106015F
:10077C00207C9847BDF80620002A67D0EB88002B18
:10078C0064D09A4228BF1A460146ADF8062020468E
:10079C0000F06DF95AE0027CD0F8143232B99B6A41
:1007AC000DF10600984702234370E3E7DB6AF7E795
:1007BC00DBB2052B37D8DFE803F003070B0F131759
:1007CC00D0F810325B68D1E7D0F810329B68CDE7D7
:1007DC00D0F81032DB68C9E7D0F810321B69C5E7D6
:1007EC00D0F810325B69C1E7D0F810329B69BDE7D5
:1007FC00037CC3B9D0F814320DF106005B6B98473B
:10080C00B8E7037C7BB9D0F814320DF106001B6BF2
:10081C0098470723C8E78B882BB9CB881BB990F86E
:10082C00FC31032B03D12046FFF774FF0EE08D78CB
:10083C0005F07F0580F8FE51294604F0BFF82046EC
:10084C0000F041F92DB1022384F8FC31002003B0F3
:10085C0030BD0123F8E78978304D01292970E2D8A1
:10086C0090F8FC31022B0CD0032BDCD1B1B9022354
:10087C00416080F8FC31FFF75BFE204600F023F965
:10088C00E4E70029F9D001210323416080F8FC3111
:10089C002046FFF742FE0228EFD1C4E74168012948
:1008AC00EBD0C9B2FFF744FE29786160F0E7CA8843
:1008BC00012AB8D190F8FC31022B03D0032BB2D112
:1008CC00011D64E70146002341F8083F5FE790F8FB
:1008DC00FC31023B012BA6D80123C360D0F80432B3
:1008EC000BB10323C360022204F10C014FE74B88C8
:1008FC00012BABD1C4F80432D4F8143229469B68CE
:10090C0020469847B9E790F8FC31023B012B8AD876
:10091C004B88012B9AD10023ECE700BF1406002072
:10092C0038B590F8FC310446032B0D460DD10B79EC
:10093C00012B0AD8D0F814329B689847EB8813B96E
:10094C00204600F0C0F8002038BDFFF7E3FEFAE7C0
:10095C0038B50B78044603F06003202B0D4605D107
:10096C00D0F814329B689847002038BD6A788B8881
:10097C00012AD9B21CD029D3032AF5D190F8FC3125
:10098C00022B3DD0032B03D02046FFF7C3FEEBE731
:10099C006B881BB94A0601D003F0E4FFD4F814327B
:1009AC0029469B6820469847204600F08CF8DBE7E8
:1009BC0090F8FC31022B23D0032BE5D16B88002B54
:1009CC00D2D14B06F0D003F0DBFFE7E790F8FC2127
:1009DC00022A15D0032AD7D101F07F051B0600EBA4
:1009EC0005154CBF143505F5827503F0D7FF60B1C2
:1009FC0001232B6002222946204600F038F8B3E789
:100A0C004A06B1D003F0AEFFAEE72860F2E70B78F0
:100A1C0003704B784370CA788B7803EB02234380C6
:100A2C004A790B7903EB02238380CA798B7903EB28
:100A3C000223C380704730B588B105462B1A15F8D0
:100A4C00014BDBB2002CF9D101335B0013800B702E
:100A5C0003234B700223013810F8015F05B930BD38
:100A6C005A1CCD54D2B20233DBB28C54F4E7134689
:100A7C00022210B5C0F8F421C0E906330A46002161
:100A8C0003F0AAFF002010BD08B513460A4600214A
:100A9C0003F0A2FF002008BD1346032210B5C0F8D6
:100AAC00F421C0F808310A46C0F80C31002103F0DB
:100ABC00A1FF002010BD08B513460A46002103F023
:100ACC0099FF002008BD08B50423C0F8F4310023B9
:100ADC001A46194603F080FF002008BD08B505230F
:100AEC00C0F8F43100231A46194603F083FF0020A6
:100AFC0008BD000010B50446143001F049FD18B1D2
:100B0C000921114804F08CFB0221204601F07EFFE4
:100B1C0018B10D210C4804F083FB04F13C0002F0E9
:100B2C009BF818B11121084804F07AFB02F06EF81A
:100B3C004FF47A73B0FBF3F000F0F6FCBDE8104014
:100B4C00042000F007BD00BF9C8C00082DE9F04389
:100B5C0007460E460025DFF8C080DFF8C0902A4C0F
:100B6C008BB0B54202DB0BB0BDE8F083142303FB62
:100B7C000573D3F810C00DF1180EC4450FCB8EE8D9
:100B8C000F000ED1A36943F00403A361A36903F022
:100B9C0004030193019B7146604600F0F9FC01359A
:100BAC00DFE71A4B9C4509D1A36943F00803A36105
:100BBC00A36903F008030293029BECE7CC4509D12F
:100BCC00A36943F01003A361A36903F0100303931B
:100BDC00039BE0E70E4B9C4509D1A36943F020032E
:100BEC00A361A36903F020030493049BD3E7094B8F
:100BFC009C45D0D1A36943F04003A361A36903F0E2
:100C0C0040030593059BC6E700100240000C014011
:100C1C000014014000180140000801400010014080
:100C2C0008B1FFF793BF704784B08DE80F009DF8B3
:100C3C00142081B2049804B000F028BE84B08DE872
:100C4C000F0081B2049804B000F03ABE84B08DE875
:100C5C000F0081B2049804B000F006BE012838B52C
:100C6C0001460AD10A48FFF771FF00224FF40051E8
:100C7C00BDE83840074800F009BE14244443044D35
:100C8C0001212819FFF7CCFF0022295BF0E700BFF8
:100C9C00E08C00080010014001281DBF14235843AC
:100CAC00044B002216BF195A4FF40051002202487F
:100CBC0000F0ECBDE08C00080010014001281DBFC5
:100CCC0014235843034B4FF4005118BF195A0248D0
:100CDC0000F0F6BDE08C00080010014070470000E9
:100CEC0003681F4A13B59342044623D11D4B1A695E
:100CFC0042F400121A611A6922F400121A61DA69BC
:100D0C0042F40012DA61DB6903F400130093009BD8
:100D1C00D4E91501FFF784FF204600F0A3FE18B1BB
:100D2C002B21114804F07CFA104802B0BDE81040A9
:100D3C0005F094BB0E4A9342EAD10A4B1A6942F46D
:100D4C0080021A611A6922F480021A61DA6942F48B
:100D5C008002DA61DB6903F480030193019BD7E71E
:100D6C000054004000100240F48C0008338D000841
:100D7C0000580040F7B504460D4616461F4620465F
:100D8C0001F024F82028FAD1FF233246009329469B
:100D9C003B46204600F046FF03B0F0BD024B1868FE
:100DAC0008B102F0FEBB704718060020034B1B680D
:100DBC0013B1DB6903B11847704700BF1806002058
:100DCC007047000001221B4B10B51A60044602F05C
:100DDC005DFB18B11F21184804F022FA01212046AE
:100DEC0002F010FC43F2F22398421BD0012204F1D2
:100DFC001401204602F0FEF818B124210E4804F02C
:100E0C000FFA012204F11701204602F049FA18B139
:100E1C002821094804F004FA43F2F2220121204669
:100E2C0002F0DCFB054B06481C60BDE8104005F0E9
:100E3C0015BB00BF3C0442423F8D00081806002041
:100E4C007E8D000808B502F097FB0822014B1A6052
:100E5C0008BD00BF00E100E010B504468CB001A94C
:100E6C00002202F05DF9002202A9204602F0BAFA33
:100E7C009DF808300CA809939DF80930013B0793A5
:100E8C009DF80A3006939DF80B30643308939DF857
:100E9C00043005939DF8053004939DF8063040F816
:100EAC00243D04F043FD0CB010BD70470368174A95
:100EBC0013B59342044618D1154B9A6942F48052EB
:100ECC009A619B6903F480530093009BD4E916014B
:100EDC00FFF7A6FE204602F0FFFBA0B129210D482A
:100EEC0002B0BDE8104004F09BB90B4A9342EDD11F
:100EFC00074BDA6942F48042DA61DB6903F4804320
:100F0C000193019BE2E702B010BD00BF003001402D
:100F1C00001002408A8D000800380040054B1B6809
:100F2C0033B101681A68914202D11B6C03B11847A6
:100F3C00704700BF1C060020024B186808B102F075
:100F4C004BBD70471C060020704700001FB503689E
:100F5C00264A044693421DD1254B9A6942F40062FD
:100F6C009A619B6903F400630093009B204602F096
:100F7C000DFE18B148211F4804F052F91E4B22688F
:100F8C001E489A4204BF1E4B1C6004B0BDE81040C2
:100F9C0005F064BAB3F1804F0BD103F50433DA6971
:100FAC0042F00102DA61DB6903F001030193019B5A
:100FBC00DCE7114A93420AD10D4BDA6942F0020286
:100FCC00DA61DB6903F002030293029BCEE70D4A60
:100FDC009342CBD1064BDA6942F00402DA61DB6949
:100FEC0003F004030393039BC0E700BF002C0140F4
:100FFC0000100240C98D0008000400400A8E000851
:10100C001C0600200008004010B5044602F0BAFC93
:10101C0018B17321074804F003F92268064B9A4271
:10102C0002D11D2000F06AFABDE81040034805F01B
:10103C0015BA00BFC98D0008000400401B8E0008C3
:10104C00174B84B098420CD103F558439A6942F47B
:10105C0080429A619B6903F480430193019B04B025
:10106C007047104B98420BD103F5E633DA6942F422
:10107C000032DA61DB6903F400330293029BEEE782
:10108C00094B9842EBD103F5E433DA6942F4802240
:10109C00DA61DB6903F480230393039BDFE700BF72
:1010AC0000380140004400400048004070470000F8
:1010BC0010B504460068FFF7C3FFD4E91001FFF731
:1010CC00AFFD204602F0B2FE28B1BDE81040282149
:1010DC00014804F0A5B810BD2D8E0008D0F81832C8
:1010EC001BB10020C3F81402704702207047D0F8DF
:1010FC001C3210B56BB1D0F8184294F80002FF28DE
:10110C0007D09B6894F8012221469847FF2384F866
:10111C000032002010BD00004323038000487047BC
:10112C003800002043230380004870477C000020D7
:10113C004323038000487047CC0000200A2303801F
:10114C0000487047C000002038B50546D0F818425A
:10115C0003F05EFCD5F81832C4F80C024BB1D5F88C
:10116C001C3204F50371DB68D4F8040298470020A4
:10117C0038BD0220FCE70000F8B50F78064617F0E2
:10118C0060030C4623D0202B19D1CA884B78C2B1EE
:10119C003906D0F818520BD5D0F81C1218468F68A7
:1011AC002946B84729463046E288FFF760FC06E03E
:1011BC0085F8003285F801222946FFF76DFC0020E6
:1011CC00F8BDD0F81C0284681846A047F7E74B78A6
:1011DC000A2BF4D101220149E7E700BF20060020C9
:1011EC0010B50446812103F0AFFB0121204603F02A
:1011FC00ABFB8221204603F0A7FBD4F8183253B185
:10120C00D4F81C325B689847D4F8180203F00AFC37
:10121C000023C4F81832002010BDF8B5037C044636
:10122C007BBB4FF400730222812103F07DFB4FF452
:10123C00007302220121204603F076FB08230322CF
:10124C008221204603F070FB4FF4077003F0E6FB9D
:10125C000646C4F8180220B30025D4F81C321B68CB
:10126C009847277CC6F81452C6F8185287B94FF421
:10127C000073D6F804220121204603F0BBFB38464C
:10128C00F8BD40230222812103F04EFB4023D0E71E
:10129C004023D6F804220121204603F0ABFB28465C
:1012AC00EEE70120ECE719B1C0F81C1200207047E2
:1012BC0002207047D0F818320020C3F80812C3F887
:1012CC0010227047D0F818320020C3F8041270476F
:1012DC00D0F8182210B572B1D2F81442012364B9B7
:1012EC00C2F814328121B2F81032D2F8082203F07D
:1012FC0073FB204610BD0220FCE71846FAE7D0F835
:10130C00182210B562B1047CD2F8042234B94FF41F
:10131C000073012103F06EFB002010BD4023F8E7A1
:10132C000220FAE708B50C4A0C4B0D498B420AD344
:10133C0000210C4B0C4A93420AD304F081F8BDE80F
:10134C00084003F049BF52F8040F43F8040BEDE7D3
:10135C0043F8041BEFE700BFA89A00080000002028
:10136C00F8050020F8050020EC18002008B5034B08
:10137C0003481B68D96804F0E3F8FEE7C4030020B7
:10138C006D8E000838B50E4B054618784FF47A73FD
:10139C00B3FBF0F30B4A1068B0FBF3F000F0C4F8A9
:1013AC00044658B90F2D09D8024629464FF0FF3094
:1013BC0000F060F82046044B1D6038BD0120FCE7AE
:1013CC000F010020C003002010010020074A08B5BF
:1013DC001368032043F01003136000F02DF8002075
:1013EC00FFF7D0FF03F0BEFE002008BD0020024036
:1013FC00034A044B11681B780B441360704700BF01
:10140C00900800200F010020014B1868704700BFA6
:10141C009008002038B50446FFF7F6FF0546631C1C
:10142C001EBF044B1B78E418FFF7EEFF401BA042D5
:10143C00FAD338BD0F010020C31E042B10B504468F
:10144C0003D9A221094803F0F9FE094A2402D36802
:10145C0004F4E06423F4E0631B041B0C43F0BF634F
:10146C0043F400331C43D46010BD00BF7E8E0008D3
:10147C0000ED00E00F2A70B505460C46164603D960
:10148C00BA211B4803F0DAFE0F2C03D9BB211848F4
:10149C0003F0D4FE174BDA68C2F30222C2F1070341
:1014AC00111D042B28BF042306294FF0FF3198BFD0
:1014BC00002201FA03F388BF033A24EA03039340A2
:1014CC0001FA02F226EA0206002D43EA0603A8BF3F
:1014DC0005F160454FEA0313B8BF074ADBB2B5BF4D
:1014EC0005F00F0505F56145535585F8003370BDC2
:1014FC007E8E000800ED00E014ED00E010B5041E37
:10150C0003DACE21064803F099FE0123620904F0A8
:10151C001F0403FA04F4034B43F8224010BD00BF30
:10152C007E8E000800E100E00138B0F1807F0AD225
:10153C00F021064B064A586082F82310002007223F
:10154C0098601A6070470120704700BF10E000E0FF
:10155C0000ED00E0042810B5084C0AD020B140F290
:10156C00D911074803F06AFE236823F004032360B3
:10157C0010BD236843F00403F9E700BF10E000E05E
:10158C007E8E0008704708B5FFF7FCFF08BD000011
:10159C002DE9F04FAA4A85B0904204468B46019241
:1015AC0013D002F5806290420FD002F58062904217
:1015BC000BD002F58062904207D002F58062904217
:1015CC0003D0CD219F4803F039FEDBF8002091B207
:1015DC0011B1120C12041AB1CE219A4803F02EFE4E
:1015EC00DBF80420032A17D9A2F11101012913D920
:1015FC00954822F4001181420ED000F580108242F1
:10160C000AD0A0F57020814206D090498A4203D0BE
:10161C00CF218C4803F012FE0025A846DFF844A227
:10162C008B4E0122DBF8007002FA08F909EA070771
:10163C00B94540F08F80019B9C4211D085498C426A
:10164C000ED0854B9C420BD001F500618C4207D02B
:10165C0001F580618C4203D0DD217A4803F0EEFD68
:10166C00DBF80410122900F0D38000F28D800229DF
:10167C0000F0C18077D8002900F09380012900F098
:10168C00AE80FF2F82BF08F1804CACF1080C4FEA02
:10169C008C014FF00F0C9DBF204622684FEA880149
:1016AC0062680CFA01FE22EA0E0205FA01F188BF0B
:1016BC00201D11430160DBF80400C3004AD5DAF8A1
:1016CC00182028F0030142F00102CAF81820DAF8B9
:1016DC00182001F1804102F00102039201F58031E2
:1016EC0008F0030E019B039A4FEA8E0E8A680CFADF
:1016FC000EFC9C4222EA0C0C00F09B80554A944252
:10170C0000F09980544B9C4200F0978002F50062E7
:10171C00944214BF0422032202FA0EF242EA0C0293
:10172C008A603268C1034CBF3A43BA433260726874
:10173C0083034CBF3A43BA437260B268C1024CBFD8
:10174C003A43BA43B260F26883024CBF174322EAB1
:10175C000707F76008F10108B8F1100F7FF461AFCB
:10176C0005B0BDE8F08F03295FD0112989D1DBF8D2
:10177C000C20013A022A03D9EC21324803F05EFD19
:10178C00DBF80C5004357CE73448814209D01CD876
:10179C00A0F58010814204D000F5803081427FF4A6
:1017AC0070AFDBF80810022904D940F20711254864
:1017BC0003F044FDDBF80810C9B301290CBFC4F8D1
:1017CC001090C4F8149008255BE725488142E8D0B6
:1017DC0000F580308142E4D0A0F58010DEE7DBF824
:1017EC000C20013A022A03D9E521164803F026FD04
:1017FC00DBF80C5045E7DBF80C20013A022A03D940
:10180C00F321104803F01AFDDBF80C50083538E7CB
:10181C00DBF80C20013A022A03D9FA21094803F01B
:10182C000DFDDBF80C500C352BE7002529E70425C2
:10183C0027E7002270E701226EE702226CE700BF67
:10184C0000080140ED8E000800001110000022106D
:10185C0000040140000C0140001001400000211068
:10186C00000031100010024038B505460C4621B975
:10187C0040F2C311044803F0E1FCAB681C4214BFF6
:10188C000120002038BD00BFED8E000870B5054664
:10189C0016460C4621B940F2E311084803F0CEFC81
:1018AC00012E06D94FF4F271044803F0C7FC2C61E9
:1018BC0070BD002EFBD12404F9E700BFED8E0008AB
:1018CC0038B505460C4621B940F2F911034803F02E
:1018DC00B5FCEB685C40EC6038BD00BFED8E0008D9
:1018EC000268536913F480630DD06FF48063536105
:1018FC000423202203640023036380F83C3080F827
:10190C003D2001207047184670472DE9F0410446F0
:10191C00164698468FB22568686937EA000013D0DE
:10192C006B695A0512D52B68202243F400732B6087
:10193C006FF480636B610423236400230120236311
:10194C0084F83C3084F83D20BDE8F081731CE3D072
:10195C0046B900232022236384F83C3084F83D20D0
:10196C000320F1E7FFF750FDA0EB0800B042D2D9FD
:10197C00EFE72DE9F843054690461F46089E4FEACF
:10198C0011498CB22968B9F1010F0CBF4B698B69F5
:10199C0034EA03030CBF01230023984501D0002037
:1019AC000CE07B1CEFD05FB90023202203202B63BB
:1019BC0085F83C3085F83D2085F83E30BDE8F8834D
:1019CC00FFF722FD801BB842DCD9EDE770B5044669
:1019DC000D46164623685B691B0601D5002012E0F4
:1019EC002046FFF77DFFA8B96A1CF3D065B9236CBC
:1019FC00202243F02003236400230320236384F874
:101A0C003C3084F83D2070BDFFF7FEFC801BA842E3
:101A1C00E0D9ECE70120F6E770B504460D46164612
:101A2C0023685B695B0701D5002012E02046FFF7B5
:101A3C0057FFA8B96A1CF3D065B9236C202243F078
:101A4C002003236400230320236384F83C3084F8B0
:101A5C003D2070BDFFF7D8FC801BA842E0D9ECE715
:101A6C000120F6E738B5044608B9012038BD0368F3
:101A7C00654A934208D002F58062934204D040F24A
:101A8C007D11624803F0DAFB6368614A013B9342C3
:101A9C0004D94FF4BF715D4803F0D0FBA36833F455
:101AAC00804304D040F27F11584803F0C7FBE36831
:101ABC0023F47F7323F0030323B14FF4C071534815
:101ACC0003F0BCFB236923F40043B3F5804F04D02F
:101ADC0040F281114D4803F0B1FB6369012B04D92D
:101AEC004FF4C171494803F0A9FBA36933F0FE031D
:101AFC0004D040F28311454803F0A0FBE36933F0B6
:101B0C00400304D04FF4C271404803F097FB236AA2
:101B1C0033F0800304D040F285113C4803F08EFB77
:101B2C0094F83D3003F0FF0223B984F83C202046A2
:101B3C00FFF7D4F82423226884F83D30136823F08F
:101B4C000103136001F068F86368324A934230D89D
:101B5C00314A904289D9314A2168B0FBF2F24A608D
:101B6C0001320A622B4A0138934233D85B00B0FB36
:101B7C00F3F0431CC3F30B03042B38BF0423CB61DA
:101B8C00D4E9073213430B60D4E9032313438B606E
:101B9C00D4E905321343CB600B68002043F00103FA
:101BAC000B602023206484F83D30206384F83E00D1
:101BBC005CE71B4A90427FF658AF184D4FF4967273
:101BCC00B0FBF5F521686A434D604FF47A75B2FBB2
:101BDC00F5F2C5E7A26852B903EB4303B0FBF3F08F
:101BEC00431CC3F30B036BB143F40043C7E7192247
:101BFC005343B0FBF3F0431CC3F30B0313B143F497
:101C0C004043BCE70123BAE7005400405A8F000858
:101C1C007F1A0600A08601007F841E0040420F0040
:101C2C00FF083D002DE9FF4104461F460D46904636
:101C3C00FFF7EAFB94F83D300646202B04D0022532
:101C4C00284604B0BDE8F0810090192301225C49BC
:101C5C002046FFF78EFE0028F1D194F83C30012B82
:101C6C00EDD0012384F83C3023681A68D2075EBF9C
:101C7C001A6842F001021A601A6822F400621A60B3
:101C8C00212284F83D20102284F83E200022226478
:101C9C00A2F580326785E262628DC4F824802285C9
:101CAC00E26A042A04D0012A02D012F5803F04D142
:101CBC001A6842F480721A6002E0226B122AF7D082
:101CCC0000960A9B00224FF001112046FFF751FEAF
:101CDC00002833D123692268B3F5804F20D105F059
:101CEC00FE05156133460A9A36492046FFF70DFE6C
:101CFC00054610BB236803905A6903929B690393B2
:101D0C00039B238D3BBB21680A6842F400720A6076
:101D1C00202284F83C3084F83D2084F83E308FE754
:101D2C00EB1103F0060343F0F0031361264933462D
:101D3C000A9A2046FFF7E9FD48B1236C236C042B6B
:101D4C004FF0000384F83C300ED1012578E723686E
:101D5C00EDB21D61C6E732460A992046FFF736FE02
:101D6C0020B1236C042B25D0032569E7616A206818
:101D7C004B1C63620B78228D0361638D013B9BB21C
:101D8C0063854769531E9BB27F0723850AD54BB1E8
:101D9C008B1C63624B78023A0361638D2285013B95
:101DAC009BB2638532460A992046FFF735FE002820
:101DBC00A7D0D6E72268136843F400731360C4E716
:101DCC0002001000020001000800010090F83D0024
:101DDC00704700002DE9F041044686B0002869D018
:101DEC000268354B9A4203D09F21344803F026FAFF
:101DFC0094F8293403F0FF0223B984F828242046F0
:101E0C0002F0E2FC254603236E4655F8100B84F8CD
:101E1C00293402F0DBF80FCD0FC62B6804F104084F
:101E2C00336098E80E00206802F0C1F800212068A9
:101E3C0002F0D6F80021234622460126084604F17A
:101E4C00100582F82810918601310F2982F829603B
:101E5C0082F82B00C2E90E00106402F12002F0D1CE
:101E6C000022174683F828229A8601320F2A83F81B
:101E7C00297283F82B72C3F83872C3F83C72C3F81A
:101E8C00407203F12003EDD16E460FCD0FC62B68C7
:101E9C00336098E80E00206802F0A4F8012384F85F
:101EAC002470206884F8293402F042FB002006B02C
:101EBC00BDE8F0810120FAE7005C0040C68F000805
:101ECC0090F8283410B5012B04460ED0012180F86F
:101EDC00281402F0A8FD206802F028FB206802F00C
:101EEC006DF8002084F8280410BD0220FCE790F85F
:101EFC00282410B5012A04460BD0012280F828248E
:101F0C0084F82410006802F00BFB002084F82804ED
:101F1C0010BD0220FCE738B5044648B2002801F099
:101F2C007F05B5BF04EB451104EB4111283101F5D8
:101F3C000A71C00F0D704870CB7094F828340A6188
:101F4C00012B09D00123206884F8283402F064F8AE
:101F5C00002084F8280438BD0220FCE74BB2002B8B
:101F6C0001F07F02B5BF00EB421100EB41112831AB
:101F7C0001F50A71DB0F10B50A704B7090F828341C
:101F8C000446012B09D0012380F82834006802F0A4
:101F9C0097F9002084F8280410BD0220FCE770B5E6
:101FAC00002601F07F014D01441984F8281205F533
:101FBC000A710144C4F83C22C4F84032C4F84462AB
:101FCC0084F82962006802F0C9FA304670BD01F04D
:101FDC000F0100EB4111B1F84402704701F07F0191
:101FEC0070B54D014419C4E90F230026012384F870
:101FFC00281005F128010144666484F82930006832
:10200C0002F0ACFA304670BD2DE9F3470446006887
:10201C0002F090FA000400F19680206802F08AFA2F
:10202C0041050FD522682046B2F8443023F4806372
:10203C001B041B0CA2F8443002F0FFFB00212046CD
:10204C00FFF755FF206802F075FA470408D522689F
:10205C00B2F8443023F480431B041B0CA2F8443028
:10206C00206802F067FA860408D52268B2F844307A
:10207C0023F400531B041B0CA2F84430206802F01C
:10208C0059FAC5041CD522682046B2F8403023F01A
:10209C0004031B041B0CA2F84030B2F8403023F0B0
:1020AC0008031B041B0CA2F8403002F0E3FB22686F
:1020BC00B2F8443023F480531B041B0CA2F84430B8
:1020CC00206802F037FA00051BD52068B0F84030C4
:1020DC0043F00803A0F84030B0F8443023F4006318
:1020EC001B041B0CA0F84430B0F8403043F0040340
:1020FC00A0F8403002F01EFAC10402D4204602F0CF
:10210C00A9FB206802F016FA82050BD5226820463E
:10211C00B2F8443023F400731B041B0CA2F84430B7
:10212C0002F087FB206802F005FAC30508D5226887
:10213C00B2F8443023F480731B041B0CA2F8443017
:10214C0002B0BDE8F0870023C04FDFF80483DFF84E
:10215C000493ADF80430ADF806302068B0F8443084
:10216C009BB2ADF804301B047FF557AFBDF804509B
:10217C0015F00F0540F0A680BDF80410038811F08F
:10218C00100125D13B400380B0F8503094F8282042
:10219C0003EBC20300EB4300D0F80434E26BC3F34F
:1021AC00090363641344E363204602F03BFB94F899
:1021BC002430002BD1D0226C002ACED194F82430BC
:1021CC00216843F08003A1F84C3084F82420C4E744
:1021DC009BB2ADF80630BDF806301A051ED5B0F826
:1021EC00503094F8282204F22C4103EBC20300EB8C
:1021FC004303D3F80C34B4F82C22C3F30903C4F80A
:10220C00443202F077FA22682046138823F07003D8
:10221C001B051B0D138002F0F7FA9EE7BDF8063084
:10222C001B049AD5038823F070031B051B0D038038
:10223C00B0F8503094F8282203EBC20300EB4303B0
:10224C00D3F80C34C3F30903C4F8443263B1B4F8C3
:10225C002C22D4F83C1202F04DFAD4F83C32D4F8CB
:10226C0044221344C4F83C320021204602F0D2FA36
:10227C002268D4F83852B2F850103E2D01F1060104
:10228C0002F5806016D9C5F34F13EE0604BF03F1B7
:10229C00FF339BB249EA83239BB240F81130138879
:1022AC0008EA030383F4405343F4004343F08003F0
:1022BC00138052E7C5F34F03ED0744BF01339BB2C4
:1022CC009B02E9E730F825309BB2ADF80630BDF83B
:1022DC00063019043DD530F825304FEA451A23F065
:1022EC0070031B051B0D20F8253004EB0A0191F837
:1022FC00323200F58062002B6CD1B0F8503091F87E
:10230C002862063303EBC60352F81360C6F30906C2
:10231C0036B1B1F82C223346D1F83C1202F0EAF96E
:10232C0004EB0A01D1F84432D1F83C223344C1F811
:10233C004432D1F840323244C1F83C221BB1D1F8BE
:10234C00380286427BD2A2449AF82812204602F028
:10235C0061FABDF806301A067FF5FFAE20686E01F3
:10236C0030F82530A1193B4020F8253091F8323057
:10237C0000F580620235002B6ED1B0F8503091F828
:10238C0028C0023303EBCC0352F8133004EB451591
:10239C00C3F309036B601BB18A8DC96B02F0CFF8D4
:1023AC0022682644B2F8503096F82810023303EB1A
:1023BC00C10302EB4303D3F80024F36BC2F309020D
:1023CC0072641A44336CF2632046002B79D102F00C
:1023DC0029FAC2E691F8283230F82360DB0016F4B3
:1023EC00804FB0F8506033441ED0023352F8136063
:1023FC00C6F3090636B13346B1F82E22D1F83C1299
:10240C0002F078F904EB0A0393F82812226832F8E8
:10241C00213023F0F0031B051B0D43F4004343F064
:10242C00C00322F821307BE7063352F81360C6F361
:10243C000906002EE6D03346B1F83022DEE791F8DB
:10244C0028122046FFF7ABFD83E700BF0F8FFFFF7D
:10245C008FBFFFFF0080FFFF91F8283030F823C0BA
:10246C00DB001CF0400FB0F850C063441DD00233A9
:10247C0052F8133004EB4515C3F309036B601BB121
:10248C00CA8DC96B02F05BF8A31993F82810226867
:10249C0032F8213023F0F0031B051B0D43F44043AD
:1024AC0043F0800322F821307AE7063352F81330D8
:1024BC0004EB4515C3F309036B60002BE4D00A8EC3
:1024CC00DFE7FFF78BFD48E6012238B54BB2002B56
:1024DC0001F07F05B5BF00EB451100EB4111283130
:1024EC0001F50A71DB0F8A700D704B7090F828346F
:1024FC00044693420ED080F82824006801F0A6FF11
:10250C0025B904F22C41206802F017F8002084F859
:10251C00280438BD0220FCE738B500244BB2002B50
:10252C0001F07F02B5BF00EB421100EB41112831E5
:10253C0001F50A71DB0F8C700A704B7090F828341F
:10254C000546012B09D0012380F82834006801F0DE
:10255C00A9FF204685F8284438BD0220FCE711F07D
:10256C00800F1BBF01F07F0100EB411000EB41100D
:10257C00283008BF00F50A7099B21AB982728180AE
:10258C000020704701221B0C8272C1800381F7E787
:10259C002DE9F341044620B94FF4B871A64802F076
:1025AC004DFE236833B11A0704D140F27111A248D1
:1025BC0002F044FE2368DB0718D423689F0774D409
:1025CC002368190700F1BB8023685A0700F1ED80DE
:1025DC00E369022B04D940F2B921974802F02EFE90
:1025EC00E269002A40F06081002020E0636833F447
:1025FC00803207D0B3F5A02F04D040F277118E486B
:10260C0002F01CFE8D4D6B6803F00C03042B07D0FD
:10261C006B6803F00C03082B0CD16B68DE0309D537
:10262C002B689D03C9D56368002BC6D1012002B06D
:10263C00BDE8F0816368B3F5803F11D12B6843F49A
:10264C0080332B60FEF7E0FE06462B689803B4D46B
:10265C00FEF7DAFE801BB0F57A7FF6D90320E6E7A9
:10266C00A3B92B6823F480332B602B6823F48023CD
:10267C002B60FEF7C9FE06462B6899039DD5FEF725
:10268C00C3FE801BB0F57A7FF6D9E7E7B3F5A02F30
:10269C002B6803D143F480232B60CFE723F48033E2
:1026AC002B602B6823F48023CBE72369012B04D9FF
:1026BC0040F2AB11604802F0C1FD63691F2B04D9D5
:1026CC004FF4D6715C4802F0B9FD5C4D6B6813F0A9
:1026DC000C0F07D06B6803F00C03082B10D16B6840
:1026EC00DA030DD42B689B0702D52369012B9DD1EE
:1026FC002B68626923F0F80343EAC2032B605FE79F
:10270C0022694F4B6AB101221A60FEF77DFE064624
:10271C002B689F07ECD4FEF777FE801B0228F7D9B5
:10272C009CE71A60FEF770FE06462B6898077FF54B
:10273C0047AFFEF769FE801B0228F6D98EE7A36926
:10274C00012B04D94FF4F6713B4802F077FDA269D6
:10275C003A4D3C4BDAB101221A60FEF755FE0646A3
:10276C006B6A9B070DD54FF4FA52374B1B68B3FBC2
:10277C00F2F3019300BF019B5A1E0192002BF9D179
:10278C0022E7FEF741FE801B0228E9D966E71A60B2
:10279C00FEF73AFE06466B6A9F077FF515AFFEF70C
:1027AC0033FE801B0228F6D958E7E368012B06D9C3
:1027BC00052B04D040F21B211F4802F03FFD1F4D9A
:1027CC00EB69D80024D40127EB6943F08053EB610B
:1027DC00EB6903F080530093009B1C4E3368D905C2
:1027EC0018D5E368012B33D12B6A43F001032B621C
:1027FC00FEF70AFE41F2883680462B6A9B074CD5C1
:10280C00002F3FF4E5AEEB6923F08053EB61DFE67C
:10281C000027E2E7336843F480733360FEF7F4FD7E
:10282C0080463368DA05DCD4FEF7EEFDA0EB080039
:10283C006428F6D912E700BF32900008001002405D
:10284C000000424280044242C0030020007000405D
:10285C00ABB92B6A41F2883823F001032B622B6A47
:10286C0023F004032B62FEF7CFFD06462B6A980774
:10287C00C6D5FEF7C9FD801B4045F7D9EEE6052B02
:10288C002B6A03D143F004032B62ADE723F0010361
:10289C002B622B6A23F00403A9E7FEF7B5FDA0EB2E
:1028AC000800B042A9D9D9E6384D6B6803F00C0387
:1028BC00082B3FF4BBAE022A354E57D1236A33F4B2
:1028CC00803304D040F2C221324802F0B7FC636A74
:1028DC0033F4402223F4802110D0B2F5801F0DD0A8
:1028EC00B2F5001F0AD0B1F5401F07D0B3F5601F39
:1028FC0004D040F2C321274802F0A0FC002333602F
:10290C00FEF782FD07462B68990129D4236AB3F59B
:10291C00803F0ED1A36833F4003304D040F2D921A8
:10292C001C4802F08BFC6B68A26823F40033134341
:10293C006B606A68D4E9083122F474120B431343B8
:10294C006B6001233360FEF75FFD04462B689A0130
:10295C003FF54AAEFEF758FD001B0228F6D97DE67E
:10296C00FEF752FDC01B0228CDD977E60023336059
:10297C00FEF74AFD04462B689B017FF535AEFEF74A
:10298C0043FD001B0228F6D968E600BF0010024088
:10299C00600042423290000830B5184B87B002AC50
:1029AC0003F11005224618685968083303C2AB427C
:1029BC001446F7D140F201231149ADF804304B68AD
:1029CC0003F00C02082A17D1C3F3834206A8024471
:1029DC00DB0312F8102C0CD54B680A48C3F34043A8
:1029EC00504306AA134413F8143CB0FBF3F007B0A1
:1029FC0030BD05485043FAE70248F8E7708C0008F0
:102A0C000010024000127A0000093D002DE9F0414F
:102A1C000E46044620B940F22E31774802F00EFCE7
:102A2C002368180704D140F22F31734802F006FCDA
:102A3C00022E04D94FF44C716F4802F0FFFB6F4A21
:102A4C00136803F00703B3423CD32368990746D4B9
:102A5C002368DA0762D4694A136803F00703B342A8
:102A6C0000F2A6802368664D13F0040F40F0AB8093
:102A7C0023681B0717D5236933F480620CD023F429
:102A8C000072B2F5A06F07D0B3F5C06F04D040F25E
:102A9C00AB31594802F0D2FB6B68226923F46053C6
:102AAC0043EAC2036B60FFF777FF6B68554AC3F3C9
:102ABC000313D35CD840544B18600020FEF762FC23
:102ACC0000200AE0136823F00703334313601368F4
:102ADC0003F00703B342B8D00120BDE8F081A3682E
:102AEC0033F0800212D023F02002902A0ED023F073
:102AFC004002A02A0AD023F01002C02A06D0F02BE4
:102B0C0004D040F249313C4802F098FB3C4AA168A1
:102B1C00536823F0F0030B43536099E76368022B6F
:102B2C0004D94FF45471344802F088FB6268344D78
:102B3C00012A2B681CD113F4003FCDD06B6841F2F5
:102B4C00883823F0030313436B60FEF75DFC636866
:102B5C000746012B14D16B6803F00C03042B3FF4D4
:102B6C007AAFFEF751FCC01B4045F4D90320B4E703
:102B7C00022A02D113F0007FDFE713F0020FDCE72B
:102B8C00022B10D16B6803F00C03082B3FF463AFDE
:102B9C00FEF73AFCC01B4045F4D9E7E7FEF734FCDE
:102BAC00C01B4045E2D86B6813F00C0FF6D152E70E
:102BBC00136823F0070333431360136803F0070310
:102BCC00B34289D14EE7E36833F480620CD023F42E
:102BDC000072B2F5A06F07D0B3F5C06F04D04FF4FC
:102BEC006971054802F02AFB6B68E26823F4E06324
:102BFC0013436B603CE700BF32900008002002409A
:102C0C000010024046950008C0030020014B1868D4
:102C1C00704700BFC0030020044B054A5B68C3F338
:102C2C000223D35C034A1068D8407047001002405E
:102C3C0056950008C0030020044B054A5B68C3F39B
:102C4C00C223D35C034A1068D8407047001002407E
:102C5C0056950008C003002003682DE9F34113F0DA
:102C6C00130F054603D17C21454802F0E7FA2B6887
:102C7C00D90728D56B6833F4407303D082214048C0
:102C8C0002F0DCFA3F4CE369DA0044D40127E36933
:102C9C0043F08053E361E36903F080530193019B9C
:102CAC00394E3368DB0538D5236A13F4407348D1A9
:102CBC00236A6A6823F44073134323621FB1E369E8
:102CCC0023F08053E3612B689B070ED5AB6833F47C
:102CDC00404303D0C9212A4802F0B0FA294AA96816
:102CEC00536823F440430B435360286810F01000E2
:102CFC0024D0EB6833F4800304D040F22511204833
:102D0C0002F09CFA1F4AE9685368002023F4800300
:102D1C000B43536012E00027C2E7336843F480731F
:102D2C003360FEF771FB80463368D805BCD4FEF7E0
:102D3C006BFBA0EB08006428F6D9032002B0BDE8B9
:102D4C00F0816A6802F440729A42B1D001200F4AB5
:102D5C00236A1060002023F4407110602162D907AF
:102D6C00A6D5FEF751FB41F288380646236A9A072E
:102D7C009ED4FEF749FB801B4045F7D9DDE700BF29
:102D8C009E90000800100240007000404004424237
:102D9C0070B50446384B86B002AD03F110062A46D6
:102DAC0018685968083303C2B3421546F7D140F28C
:102DBC00012314F0130FADF8043004D14FF4D37188
:102DCC002E4802F03BFA022C47D0102C17D0012CC5
:102DDC004FD140F202312A4A136A1940B1F5817F72
:102DEC0044D003F44073B3F5007F2DD149F6404035
:102DFC00536A13F0020F08BF002006B070BD204BC1
:102E0C005968186810F08070F7D0C1F3834206A897
:102E1C00024412F8100CCA0341BF5A6806A9C2F347
:102E2C004042521844BF12F8141C164A5B684CBF3F
:102E3C00B2FBF1F2144A5B0202FB00F0DDD4032377
:102E4C004000B0FBF3F0D8E7B3F5407F11D1136825
:102E5C004FF2244013F4003FCDE7FFF7EDFE084B93
:102E6C005B68C3F3813301335B00EAE74FF4004046
:102E7C00C3E70020C1E700BF808C00089E900008CB
:102E8C000010024000127A0000093D00036830B5C2
:102E9C009A69D869996995B28CB2A54217BFD8695D
:102EAC0080B280B240EA014008BF40EA024030BD27
:102EBC000368186A5B6A9BB243EA004070470023C0
:102ECC00092803D840EA0310C0B270470A3801330E
:102EDC00C0B2F5E70A22030900F00F0002FB030061
:102EEC00C0B2704730B5172509234D43022900F5B0
:102EFC00FA64B5FBF3F517D8043200F2CF7310194E
:102F0C004FF4C872B3FBF2F2284400EB9300104468
:102F1C006422B3FBF2F3C01A0723B0FBF3F3C3EB49
:102F2C00C303C01AC0B230BD4FF4C873901C6422E6
:102F3C002044B4FBF3F3284400EB9400B4FBF2F40C
:102F4C001844001BE8E738B50446FEF75DFA054661
:102F5C0023685A68920605D500205A6842F0100280
:102F6C005A6038BDFEF750FA401BB0F57A7FEFD9A6
:102F7C000320F6E7026838B55368044623F01003C3
:102F8C005360FEF741FA054623685B689B0601D542
:102F9C00002038BDFEF738FA401BB0F57A7FF3D924
:102FAC000320F6E738B505460C46FFF7CCFF58B9B9
:102FBC002B68220CA4B29A612846DC61FFF7DAFF79
:102FCC00003018BF012038BD0120FCE738B505469C
:102FDC000C46FFF7B8FF58B92B68220CA4B21A6242
:102FEC0028465C62FFF7C6FF003018BF012038BDD1
:102FFC000120FCE770B50D461646044600283DD06E
:10300C0000293BD0012A04D940F2E911434802F0CF
:10301C0015F9237C012B4FF002037DD00122637440
:10302C002274287866BB172804D94FF4F9713B48F1
:10303C0002F004F96B783B2B04D940F2F3113748BA
:10304C0002F0FCF8AB783B2B04D94FF4FA713348FF
:10305C0002F0F4F83C206B782E7858434FF46163FF
:10306C0003FB0606A878064431462046FFF79AFF74
:10307C00054698B30423637400232374012549E0A7
:10308C00FFF728FF172804D94FF4FE71234802F0EC
:10309C00D5F86878FFF71EFF3B2804D940F2FD11E4
:1030AC001E4802F0CBF8A878FFF714FF3B2804D990
:1030BC004FF4FF71194802F0C1F82878FFF70AFFA6
:1030CC0006466878FFF706FF3C2358434FF46163CC
:1030DC0003FB0606A878FFF7FDFEC4E7226820462E
:1030EC00536823F005035360FFF7E2FE431C0DD039
:1030FC0086420BD900F5A83101F5C0712046FFF7C7
:10310C0065FF18B1042325746374B7E70123637456
:10311C0000232374284670BD1D46FBE70D91000863
:10312C002DE9F8430D469046044610B90120BDE840
:10313C00F8830029FAD0012A04D94FF413715648A8
:10314C0002F07CF823685B685807EFD42046FFF741
:10315C009DFE4FF46162B0FBF2F3074602FB1302D3
:10316C003C20B2FBF0F100FB1122172B6970AA7006
:10317C0040F28D801821B3FBF1F201FB1233204693
:10318C002B70FFF795FE411C064604D087422CBFDE
:10319C004FF0FF36C61B414B2046B7FBF3F903FB40
:1031AC0019794946FFF7FEFE0028BFD1721C2ED0BC
:1031BC0009EB06012046FFF709FF0028B6D1374B73
:1031CC000026B7FBF3F74FF0640C4FF4C87E40F2C7
:1031DC00D529E07B617BA27BB7421AD8C9B2D2B2A7
:1031EC00E0736173A273FFF77DFE2073B8F1000FDB
:1031FC000BD02878FFF763FE28706878FFF75FFE26
:10320C006870A878FFF75BFEA87000208FE7314646
:10321C00D0E74B1E092B0ED829FA03F3DB0738D461
:10322C0021F00203042B01D0092B0DD11D2A0FD93B
:10323C000131012206E00C29F2D11E2A08D9012203
:10324C00114601300136C7E70229FBD11B2A01D8F0
:10325C000132F7E71C2A13D182B2930712D1B2FBC9
:10326C00FCF30CFB13239BB27BB9B2FBFEF30EFBFE
:10327C0013239BB2002B0EBF1D2201220321E1E779
:10328C001D2ADFD101220321DCE71D22DAE72B7096
:10329C00ACE71E2ACBE700BF0D910008805101005E
:1032AC0070B50D461646044600284FD000294DD067
:1032BC00012A04D940F2BB21484801F0BFFF237C0E
:1032CC000220012B00F08980012360742374E878BC
:1032DC00002E3DD1632804D94FF431713F4801F0E1
:1032EC00ADFF6B78013B0B2B04D940F2C5213B4859
:1032FC0001F0A4FFAB78013B1E2B04D940F2C62190
:10330C00364801F09BFFEB78E3736B786373AB7813
:10331C00A373A27B617BE07BFFF7E4FD2073287035
:10332C002046FFF7B3FD2E4B984252D9A3F60F63FC
:10333C00B0FBF3F503FB150520462946FFF732FEDB
:10334C00064698B30423637400232374012044E0DD
:10335C00FFF7C0FD632804D940F2CF211F4801F0CC
:10336C006DFF6878FFF7B6FD0138C0B20B2804D9A1
:10337C004FF43471194801F061FFA878FFF7AAFDEA
:10338C000138C0B21E2804D940F2D121134801F0F3
:10339C0055FFE878FFF79EFDE0736878FFF79AFD1C
:1033AC006073A878FFF796FDA073B2E72046FFF78D
:1033BC007FFD431C0DD085420BD900F5A83101F5DA
:1033CC00C0712046FFF702FE18B104232674637403
:1033DC00BCE7012300206374207470BD0D910008BC
:1033EC008F5F01000023F7B50C461746ADF804308B
:1033FC008DF80630054618B90122104603B0F0BD11
:10340C000029F9D0012A04D940F22D31104801F0DD
:10341C0015FF002201A92846FFF782FE024600286C
:10342C00EAD12B7B2370E87BE0706E7B6670A97B06
:10343C00A170002FE1D0FFF742FDE0703046FFF79E
:10344C003EFD60700846FFF73AFDA070D5E700BF5F
:10345C000D91000838B50446A8B10268536823F0F2
:10346C0008035360FDF7D0FF054623685B681B0714
:10347C0001D5002038BDFDF7C7FF401BB0F57A7FA2
:10348C00F3D90320F6E70120F4E7000010B5044659
:10349C0070B30268344B9A4203D0FC21334801F0DC
:1034AC00CDFEA36833F0800208D023F40073B3F58B
:1034BC00807F03D0FD212D4801F0C0FE63682C4AAB
:1034CC00A3F58013934203D8FE21284801F0B6FEE1
:1034DC00637C03F0FF021BB922742046FDF770FCDD
:1034EC00022320466374FFF7B5FF18B104236374FD
:1034FC00012037E02046FFF726FD0028F6D1226890
:10350C00A068536823F0070353601A4A18B1116B73
:10351C0021F001011163D36A23F460730343D36276
:10352C006068431C05D10120FFF732FC0028DDD078
:10353C0001382268936823F00F0343EA1043936029
:10354C00D36880B21B0C1B041843D0602046FFF7D5
:10355C0011FD012310B104226274C9E7E073637397
:10356C00A373637410BD00BF002800400D910008C8
:10357C00FEFFEFFF006C004080B1037C012B4FF08D
:10358C00020309D002684374136843F0010313600B
:10359C0001234374002303741846704701207047BD
:1035AC007047036810B51A680446D10711D55A68DC
:1035BC00D2070ED55B685B070CD5FFF7F1FF6FF0F8
:1035CC00040223685A6004236FF0010263742368B9
:1035DC005A6010BDFDF7EAFB0123F5E70A2938B55F
:1035EC000C46154604D94FF4F771054801F026FE38
:1035FC00A10001F1804101F5D841ADB20D6038BD9B
:10360C00799100080A2910B50C4604D94FF40271BF
:10361C00054801F013FEA10001F1804101F5D841EC
:10362C00086880B210BD00BF799100082DE9F04107
:10363C000446884617461D46069E2268936838EA5B
:10364C0003030CBF012300239F4201D100202BE078
:10365C006B1CF3D055BB23685A6822F0E0025A6009
:10366C006268B2F5827F0AD1A268B2F5004F02D02F
:10367C00B2F5806F03D11A6822F040021A60A26A78
:10368C00B2F5005F09D11A6822F400521204120C30
:10369C001A601A6842F400521A60012384F85130FF
:1036AC000023032084F85030BDE8F081FDF7ACFE18
:1036BC00801BA842C1D3CEE713B50B4600928021E4
:1036CC0000220446FFF7B2FF20B10320636D43F0E4
:1036DC002003636502B010BD10B50446002800F04D
:1036EC00958003684A4A934208D0A2F578429342E7
:1036FC0004D04FF48771474801F0A0FD63683BB1DB
:10370C00B3F5827F04D040F20F11424801F096FDD0
:10371C00A36833F4806207D0B3F5004F04D04FF4A4
:10372C0088713C4801F08AFDE36833F4006304D0EF
:10373C0040F21111374801F081FD236933F0020387
:10374C0004D04FF48971334801F078FD6369012B83
:10375C0004D940F213112F4801F070FDA36933F422
:10376C00007207D0B3F5802F04D04FF48A7129482A
:10377C0001F064FDE36933F0180306D0202B04D06C
:10378C0040F21511234801F059FD236A33F08003F0
:10379C0004D04FF48B711F4801F050FD0023A3623D
:1037AC0094F8513003F0FF0223B984F850202046DE
:1037BC00FDF77BFB0223216884F851300B68A2696A
:1037CC0023F040030B60D4E901300343E06803436A
:1037DC002069034360690343E0690343206A0343A0
:1037EC00A06A034302F4007003430B60120C636A7B
:1037FC0002F004021A434A60CB69002023F40063F0
:10380C00CB610123606584F8513010BD0120FCE7C9
:10381C0000300140E89100082DE9FF411E46836805
:10382C00044633F400430D46904604D04FF4E17146
:10383C00534801F003FD94F85030012B00F09E80AA
:10384C00012384F85030FDF7DFFD074694F8510052
:10385C00C0B2012840F09080002D50D0B8F1000F7C
:10386C004DD0032384F851300023A2686365A36311
:10387C00A4F83680A387E387C4E910332368B2F534
:10388C00004F08BF1A68256308BF42F48042A4F8B1
:10389C00348008BF1A601A68E16852065EBF1A6865
:1038AC0042F040021A60B1F5006F626838D11AB16B
:1038BC00E28E92B2012A06D135F8022BDA60E38E41
:1038CC00013B9BB2E386E38E9BB293B900973346E0
:1038DC00012202212046FFF7A9FE78B93A4631466B
:1038EC002046FFF7E9FE002838D02023012063652D
:1038FC0005E023689A689007DED44EB903200123B3
:10390C0084F85130002384F8503004B0BDE8F081C5
:10391C00711CD8D0FDF778FDC01BB042D3D3EDE7B6
:10392C001AB1E28E92B2012A06D115F8012B1A7344
:10393C00E38E013B9BB2E386E38E9BB2002BC5D09A
:10394C0023689A689207F0D4002ED7D0731CF3D05A
:10395C00FDF75AFDC01BB042EED3CFE7A36833B9D5
:10396C0003932368DA6803929B680393039B606D4F
:10397C00003018BF0120C2E70220C0E70220C4E7D4
:10398C00E89100080368104A10B5934204460FD022
:10399C00B3F1804F0CD0A2F59432934208D002F5CB
:1039AC008062934204D040F25D11084801F046FC5D
:1039BC0023680020DA6842F00102DA601A6842F0EB
:1039CC0001021A6010BD00BF002C01405492000887
:1039DC007047704770477047036810B51A69044602
:1039EC0091070ED5DA6892070BD56FF002021A61B7
:1039FC0001229B6902779B0777D0FFF7EAFF002330
:103A0C00237723681A69500710D5DA6851070DD54A
:103A1C006FF004021A6102229B69227713F4407F33
:103A2C00204668D0FFF7D5FF0023237723681A6957
:103A3C0012070FD5DA6810070CD56FF008021A615F
:103A4C000422DB692277990720465AD0FFF7C1FF81
:103A5C000023237723681A69D20610D5DA68D006BA
:103A6C000DD56FF010021A610822DB69227713F46E
:103A7C00407F20464BD0FFF7ACFF00232377236811
:103A8C001A69D10708D5DA68D20705D56FF001029B
:103A9C0020461A61FDF742FA23681A69100608D508
:103AAC00DA68110605D56FF0800220461A6100F025
:103ABC00C2F823681A69520608D5DA68500605D58B
:103ACC006FF0400220461A61FFF785FF23681A69E0
:103ADC00910622D5DA6892061FD56FF02002204697
:103AEC00BDE810401A6100F0A5B8FFF771FF204641
:103AFC00FFF770FF83E7FFF76BFF2046FFF76AFFC6
:103B0C0092E7FFF765FF2046FFF764FFA0E7FFF79A
:103B1C005FFF2046FFF75EFFAFE710BD1A4A036850
:103B2C0090420AD0B0F1804F07D0A2F59432904267
:103B3C0003D002F58062904215D14A6823F07003DD
:103B4C001343114A90420AD0B0F1804F07D0A2F52E
:103B5C009432904203D002F58062904203D1CA683D
:103B6C0023F4407313434A6923F080031343036027
:103B7C008B68C3620B688362034B984204BF0B696A
:103B8C000363012343617047002C014010B50446C8
:103B9C00002849D00368254A93420ED0B3F1804FD8
:103BAC000BD0A2F59432934207D002F58062934277
:103BBC0003D0D5211E4801F041FBA36833F010025D
:103BCC0009D023F04002202A05D0402B03D0D62167
:103BDC00174801F033FB236933F4807206D0B3F538
:103BEC00007F03D0D721124801F028FBA36933F0E2
:103BFC00800303D0D8210E4801F020FB94F83D300F
:103C0C0003F0FF0223B984F83C202046FDF79CF911
:103C1C000223206884F83D30211DFFF77FFF01232C
:103C2C00002084F83D3010BD0120FCE7002C014041
:103C3C0054920008704770472DE9F8434268644B72
:103C4C0080469A4204D940F6A711624801F0F6FA70
:103C5C00D8F80C3033F4005304D040F6A8115D486A
:103C6C0001F0ECFAD8F8103033F4806207D0B3F5D9
:103C7C00C06F04D040F6A911564801F0DFFA4FF698
:103C8C00F372D8F81430134200D123B940F6AA11BC
:103C9C00504801F0D3FAD8F80030D8F80C101A6953
:103CAC00D8F8100022F440520A431A61D8F80820C0
:103CBC00D9680243D8F8140021F4B05121F00C015A
:103CCC0002430A43DA605A69D8F8181022F4407299
:103CDC000A435A61404A1924934247D1FEF7ACFF7C
:103CEC0004FB00F3D8F804606427B600B3FBF6F3CA
:103CFC00B3FBF7F31E01FEF79FFF6043D8F80430C7
:103D0C009B00B0FBF3F5FEF797FF6043D8F8043047
:103D1C009B00B0FBF3F3B3FBF7F307FB13531B014F
:103D2C003233B3FBF7F303F0F005FEF785FF604386
:103D3C00D8F804209200B0FBF2F9FEF77DFF604347
:103D4C00D8F80430D8F800209B00B0FBF3F3B3FB99
:103D5C00F7F307FB13931B013233B3FBF7F303F0B9
:103D6C000F032B4333449360BDE8F883FEF754FFF5
:103D7C0004FB00F3D8F804606427B600B3FBF6F339
:103D8C00B3FBF7F31E01FEF747FF6043D8F804308E
:103D9C009B00B0FBF3F5FEF73FFF6043D8F804300F
:103DAC009B00B0FBF3F3B3FBF7F307FB13531B01BF
:103DBC003233B3FBF7F303F0F005FEF72DFF60434E
:103DCC00D8F804209200B0FBF2F9FEF725FFB6E715
:103DDC0020AA4400C092000800380140F8B50446FF
:103DEC000E4617461D4621680B6836EA030301D1BF
:103DFC00002014E06B1CF7D095B923680320DA6817
:103E0C0022F4D072DA605A6922F001025A6120233E
:103E1C0084F8393084F83A30002384F83830F8BD0F
:103E2C00FDF7F2FAC01B8542DDD2E6E710B5044679
:103E3C0000285BD0816903682D4A00294AD093423F
:103E4C000CD0A2F57442934208D002F580629342E2
:103E5C0004D040F20F11274801F0F0F9A36933F4B4
:103E6C00407304D04FF48871224801F0E7F9A3683D
:103E7C0033F4805304D04FF48B711E4801F0DEF9FB
:103E8C0094F8393003F0FF0223B984F83820204627
:103E9C00FDF70CF92423226884F83930D3682046C6
:103EAC0023F40053D360FFF7C7FE236800201A6980
:103EBC0022F490421A615A6922F02A025A61DA6895
:103ECC0042F40052DA602023E06384F8393084F83D
:103EDC003A3010BD9342CAD0074A9342C7D002F57C
:103EEC0080629342C3D04FF48A71BDE70120F0E7A2
:103EFC0000380140C0920008004400402DE9F04118
:103F0C001F4690F839300446202B0D4690464CD174
:103F1C00002948D0002A46D090F83830012B44D0E4
:103F2C00012380F838300023C363212380F8393013
:103F3C00FDF76AFA0646A4F82480A4F82680E38CE0
:103F4C009BB263B93B46324640212046FFF746FF01
:103F5C00A0B9202384F8380084F839300FE0E38CC2
:103F6C003246013B9BB2E384A3688021B3F5805FAA
:103F7C0020463B460ED1FFF731FF10B10320BDE8C0
:103F8C00F0812B882268C3F308035360236943B97B
:103F9C000235D4E7FFF722FF0028EFD123682A78F7
:103FAC005A600135CBE70120E9E70220E7E784B04E
:103FBC0001A880E80E0004B000207047B0F8403033
:103FCC0043F43F43A0F8403000207047B0F8403035
:103FDC0023F474535B045B0CA0F840300020704752
:103FEC000020704784B010B503AC84E80E00BDE827
:103FFC0010400123A0F840300023A0F84030A0F876
:10400C004430A0F85030B0F8402004B042F43F42A5
:10401C00A0F840201846704770B5CA780B78032A70
:10402C000DD8DFE802F0025A4A5130F8232022F46E
:10403C00EC4222F0700242F4007220F8232040F689
:10404C000F720C7830F8243044F4004545F08005AC
:10405C0013402B4320F824308C7A00F580650B78C4
:10406C00002C40F082808C884E7864086400DB0061
:10407C00E6B3B0F85060334445F813400C7830F890
:10408C0024305D0608D530F824301A4042F4004242
:10409C0042F0C00220F824200A7830F8223023F4B1
:1040AC00E04323F0400383F0200343F4004343F048
:1040BC00800320F82230002070BD30F8232022F439
:1040CC00EC4222F07002B8E730F8232022F4EC42E4
:1040DC0022F0700242F4C062AFE730F8232022F4E1
:1040EC00EC4222F0700242F48062A6E7B0F8502055
:1040FC001344043345F81340B0F850200C690B7886
:10410C0006323E2C02EBC30227D9C4F34F16E3064A
:10411C0004BF06F1FF339EB2684B43EA86239BB281
:10412C0045F812300A7830F822305C040BD530F8A0
:10413C00223023F0F0031B051B0D43F4404343F0E6
:10414C00800320F822300A7830F8223023F48043A0
:10415C0023F0700383F44053A7E7C4F34F03E6073F
:10416C0044BF01339BB29B02D9E730F8234024F4BF
:10417C00F8742405240D44F4014444F0800420F820
:10418C002340B0F850400B7804EBC304CB885B0899
:10419C005B0045F81430B0F850300C78043303EB66
:1041AC00C4030C896408640045F813404B780C7800
:1041BC00002B43D130F824305B0408D530F8243080
:1041CC001A4042F4404242F0800220F824200A783F
:1041DC0030F822305E060BD530F8223023F0F00395
:1041EC001B051B0D43F4004343F0C00320F82230A1
:1041FC000A7830F8223023F0F0031B051B0D43F432
:10420C00004343F0C00320F8223048F280020C78BF
:10421C0030F8243023F4804323F0700383F44053AC
:10422C00134320F82430097830F8213023F4E0438C
:10423C0023F040031A4320F821203CE730F82430C7
:10424C005D0408D530F824301A4042F4404242F064
:10425C00800220F824200A7830F822305B060BD537
:10426C0030F8223023F0F0031B051B0D43F4004300
:10427C0043F0C00320F822300A7830F8223023F0C3
:10428C00F0031B051B0D43F4404343F0800320F85F
:10429C00223048F280020C7830F8243023F4E043CA
:1042AC0023F04003134320F82430097830F82130F0
:1042BC0023F4804323F07003BCE700BF0080FFFFB2
:1042CC0010B58C7A4A780B78BCBBF2B130F823204D
:1042DC0052060BD530F8232022F0F0021205120DF5
:1042EC0042F4004242F0C00220F823200A7830F851
:1042FC00223023F0C0031B051B0D43F4004343F095
:10430C00800320F82230002010BD30F82320540404
:10431C000BD530F8232022F0F0021205120D42F4D6
:10432C00404242F0800220F823200A7830F82230F4
:10433C0023F0F0039B049B0CDFE7002A44D130F8F8
:10434C00232052040BD530F8232022F0F002120562
:10435C00120D42F4404242F0800220F823200A78E9
:10436C0030F822305C060BD530F8223023F0F00305
:10437C001B051B0D43F4004343F0C00320F822300F
:10438C000A7830F8223023F0F0031B051B0D43F4A0
:10439C00004343F0C00320F8223048F280020C782E
:1043AC0030F8243023F4804323F07003134320F8B7
:1043BC002430097830F8213023F4E04323F0400313
:1043CC001A4320F821209EE730F8232052040BD505
:1043DC0030F8232022F0F0021205120D42F4404274
:1043EC0042F0800220F823200A7830F822305B0655
:1043FC000BD530F8223023F0F0031B051B0D43F4D2
:10440C00004343F0C00320F822300A7830F8223001
:10441C0023F0F0031B051B0D43F4404343F08003D2
:10442C0020F8223048F280020C7830F8243023F443
:10443C00E04323F04003134320F82430097830F88C
:10444C00213023F4804323F07003B9E70A787AB95A
:10445C00038823F4804323F0400383F4805383F0D8
:10446C00100343F4004343F08003038000207047A3
:10447C004B7873B130F8223023F4E04323F040033F
:10448C0083F0100343F4004343F0800320F8223000
:10449C00ECE730F8223023F4804323F0700383F4EC
:1044AC008053EFE74B780A7803B330F822305B0681
:1044BC000BD530F8223023F0F0031B051B0D43F411
:1044CC00004343F0C00320F822300A7830F8223041
:1044DC0023F4E04323F0400383F0300343F4004320
:1044EC0043F0800320F822300020704730F822304F
:1044FC005B040BD530F8223023F0F0031B051B0DA9
:10450C0043F4404343F0800320F822300A7830F81B
:10451C00223023F4804323F0700383F44053DDE70F
:10452C0011B98023A0F84C30002070470020704750
:10453C0000207047B0F844007047002070470133EA
:10454C0000F580605B1000EB420203B9704731F854
:10455C00020B013B22F8040BF7E70000F8B54A7890
:10456C000546012A0E468B690C69887A59D1A342FB
:10457C0099BF00221C461B1B8B6198BF8A61A3B29A
:10458C00496905F58067E0B9B2882846FFF7D7FF7F
:10459C00B5F850303278023303EBC20347F81340BE
:1045AC00327835F8223023F4E04323F0400383F0D3
:1045BC00300343F4004343F0800325F822300020FD
:1045CC00F8BD327835F82200D20010F0400FB5F863
:1045DC005000024402F1020247F81240284614BF70
:1045EC003289F288FFF7ABFF7378327863B935F80C
:1045FC00223023F0F0031B051B0D43F4004343F062
:10460C00C00325F82230CBE7012BC9D135F8223075
:10461C0023F0F0031B051B0D43F4404343F08003D0
:10462C00EFE7A34293BF00211B1B8B611C4698BF75
:10463C00B1613378F8B9B5F85020063202EBC302F9
:10464C003E2C05F580603FD9C4F34F11E40604BF3E
:10465C0001F1FF3399B2264B43EA81239BB240F818
:10466C001230327835F8223023F4804323F0700373
:10467C0083F440539DE7B2B9B5F850203E2C02F1BB
:10468C00020202EBC30205F5806015D9C4F34F1189
:10469C00E30604BF01F1FF3399B2154B43EA8123C2
:1046AC009BB240F8123073783178ABB9B5F8502022
:1046BC00063202EBC102C3E7C4F34F03E70744BF62
:1046CC0001339BB29B02EBE7C4F34F03E10744BFFA
:1046DC0001339BB29B02C1E7012BC2D1B5F850301C
:1046EC00023303EBC10305EB4303C3F80044B8E703
:1046FC000080FFFF10B50024013300F580605B10D3
:10470C0000EB42029C4200D110BD52F8240021F86B
:10471C0014000134F6E7000010B5094C00220949D9
:10472C002046FBF7D9FE08492046FBF7EAFE204657
:10473C000649FCF7B8FD2046BDE81040FBF7E8BE83
:10474C009408002024010020000000201401002007
:10475C00002070470020704710B5054C01462046DC
:10476C00FCF7B0FD2046FCF7CAFD002010BD00BFD1
:10477C009408002010B5064C002206492046FCF790
:10478C0099FD05492046FCF79DFD002010BD00BF9A
:10479C0094080020A00E0020B80A002010B5094C87
:1047AC000A46D4F81832D3F8143243B901462046DD
:1047BC00FCF780FD2046BDE81040FCF789BD0120C8
:1047CC0010BD00BF9408002007B50E4B02689A423A
:1047DC0015D103F5DA33DA69142042F40002DA61F8
:1047EC000022DB69114603F400030193019BFCF7E3
:1047FC0041FE142003B05DF804EBFCF77FBE03B060
:10480C005DF804FB005C004000F22C41D0F85C0425
:10481C00FBF795BE00EB4113D3F83C22D0F85C04B7
:10482C00FBF7BABE00EB4113DA6BD0F85C04FBF774
:10483C00E5BED0F85C04FBF761BF10B5044601215E
:10484C00D0F85C04FBF748FFD4F85C04BDE81040DA
:10485C00FBF723BF10B50446D0F85C04FBF73FFF11
:10486C00A36923B1024A136943F00603136110BD17
:10487C0000ED00E0D0F85C04FBF73ABF082310B55C
:10488C001F4A04461F480221C0E900230323C0E944
:10489C0002130023C0F85C44C4F82002C0E90633BC
:1048AC000362FDF797FA20B14FF49771164800F0A8
:1048BC00B7FC002218231146D4F82002FDF74FFE56
:1048CC00582300228021D4F82002FDF748FEC02393
:1048DC0000228121D4F82002FDF741FE4FF48873A9
:1048EC0000220121D4F82002FDF739FE4FF4807329
:1048FC0000228221D4F82002FDF731FE002010BDE9
:10490C00005C0040881200203193000808B5D0F8F4
:10491C002002FDF7D5FA032896BF024B0220185C43
:10492C0008BD00BF2D93000810B51C46D0F820021E
:10493C0013462246FDF7EFFA032896BF014B0220DF
:10494C00185C10BD2D93000808B5D0F82002FDF7B7
:10495C0005FB032896BF024B0220185C08BD00BF64
:10496C002D93000808B5D0F82002FDF7ADFD032803
:10497C0096BF024B0220185C08BD00BF2D930008A7
:10498C0008B5D0F82002FDF7C7FD032896BF024BEF
:10499C000220185C08BD00BF2D9300080A06D0F851
:1049AC00203245BF01F07F0103EB411303EB4113B0
:1049BC0093F82A0058BF93F82A02704708B5D0F82C
:1049CC002002FDF794FA032896BF024B0220185CD4
:1049DC0008BD00BF2D93000808B5D0F82002FDF7E4
:1049EC00FDFA032896BF024B0220185C08BD00BFDD
:1049FC002D93000808B5D0F82002FDF7D0FA032853
:104A0C0096BF024B0220185C08BD00BF2D93000816
:104A1C0008B5D0F82002FDF7DAFA08BD0048704757
:104A2C002406002070477047122301480B80704702
:104A3C0040010020042301480B80704754010020E2
:104A4C0010B5044C0A4604482146FBF7F4FF2046F7
:104A5C0010BD00BFE81600208D93000810B5044C63
:104A6C000A4604482146FBF7E6FF204610BD00BF6E
:104A7C00E8160020A093000810B5044C0A46044820
:104A8C002146FBF7D8FF204610BD00BFE8160020DA
:104A9C00B693000810B5044C0A4604482146FBF7AF
:104AAC00CAFF204610BD00BFE81600207493000812
:104ABC0010B5044C0A4604482146FBF7BCFF2046BF
:104ACC0010BD00BFE81600207F93000808B5FCF766
:104ADC0007F9BDE80840014801F0C0BCC3930008C9
:104AEC0010B490F85C4093B20A46610010BCFCF71D
:104AFC0041B938B50546017A4068FCF791F82C7A33
:104B0C006400204600F020FE002328600444A042EC
:104B1C0001D16B7238BD0246032120F8023B1170A3
:104B2C00F5E72DE9F341044600274FF01408267AE7
:104B3C00FDB2AE420ED800231846DAB296421ED809
:104B4C0000224FF0010C1746D3B29E4228D802B077
:104B5C00BDE8F0816368013708FB05331A690092E0
:104B6C000FCBFCF773F82368012813F815200CBF42
:104B7C0042F001026FF3000203F81520D7E7226818
:104B8C0002EB430112F81320013302F00105C2F3CA
:104B9C004002954217BF4A78487001324A70CCE700
:104BAC00236851005D1895F801E0A07A86451DD365
:104BBC0013F8120000F0030EBEF1020F02BF40F01A
:104BCC000400585484F809C0585C00F0030EBEF180
:104BDC00010F02BF40F00800585484F809E06F70D0
:104BEC00585CC0F3000565F3410058540132ABE743
:104BFC00002330B5057ADAB2954202D8002343720D
:104C0C0030BD01685C0011F8132012F0080F1CBFB6
:104C1C006FF3C30201F813200A5D013312F0040F85
:104C2C001CBF6FF382020A55E5E737B5044680696D
:104C3C00FBF760FF6069FCF73BFA606900F03AF93A
:104C4C00FFF76AFD05232068012580F860300323F7
:104C5C0080F86130042380F8625080F8633000F0F3
:104C6C00FBFA0021206800F067FB6068FFF741FF4A
:104C7C00A06800F03FFAE068FCF7A4F8E068FCF7E5
:104C8C00E1F82069FCF762F92069FCF7BDF9002016
:104C9C00FBF7E4FF2946206AFBF7C2FF0020FBF775
:104CAC00FBFF0022236A01921A6900920FCBFBF7DB
:104CBC00BBFF03B030BD00002DE9F04390F8243069
:104CCC0095B00446002B32D04022002104A800F0FD
:104CDC004BFDE068FCF7C0F814AB63E91201184611
:104CEC0000F036FC564A0346402104A802F0ACF909
:104CFC00A06800F091F904AB524A0021A06800F0C2
:104D0C0099F90020FBF7DAFF04A801F033FB04A8A3
:104D1C00FBF716FA0D22411C14AB0B4404A889B204
:104D2C0003F8412CFFF73AFD002384F8243094F863
:104D3C00253043B1236A1A6900920FCBFBF77EFF33
:104D4C00002384F8253094F8263053B33E4F3B783B
:104D5C0023B33E4D3E4E2A683368013A9A4230DC0A
:104D6C0000232946E069336000F04AFB8046FCF7DB
:104D7C004BFB01F07BFB2B68002B03DB41462068CF
:104D8C0000F0DAFA42462968324801F0F3FA2B684F
:104D9C00002BBFBF00233B702B603360002384F8D3
:104DAC00263094F827304BB16068FFF7BAFE636881
:104DBC005B7A002B3CD1002384F8273015B0BDE87A
:104DCC00F08301333360E2E7036813F816301B07F6
:104DDC0015D53146484601F0CDFAC6B998F80030E1
:104DEC006BB93B785BB9E068FCF736F801F03EFB39
:104DFC00E06900F0DFFA012388F800303B700136DF
:104E0C006068037AB342DFDCFFF7F2FED3E7012ED2
:104E1C00F5D13B78002BF2D098F80050002DEED154
:104E2C002946206800F088FA88F800503D70E6E7C3
:104E3C000026DFF82890084FDFF80C80E0E700BF71
:104E4C00D6930008DF93000845080020480800208E
:104E5C004C080020E293000844080020F49300085A
:104E6C000122024B83F82420704700BF0C03002062
:104E7C000D4901200A680D4B082ACDBF00221218DB
:104E8C000A600A600A49C8BF83F826000A6883F8DA
:104E9C002700302AC3BF00220A6001220132D4BF8E
:104EAC000A6083F825207047500800200C0300206E
:104EBC0054080020014B1860704700BF58080020B0
:104ECC0002282DE9F8430E4617461CD10024204D2C
:104EDC00DFF8848012E0286878B14FF6FF73012266
:104EEC003119FFF70BF8335D0A2B06D14FF6FF7320
:104EFC00012241462868FFF701F80134BC42EADB85
:104F0C003846BDE8F8830128FAD1114D28680028ED
:104F1C00F6D04FF6FF7305220E49FEF7EFFF34462D
:104F2C00DFF83490A31B9F42EADD4FF6FF73214656
:104F3C0001222868FEF7E2FF237801340A2BF1D115
:104F4C004FF6FF73012249462868FEF7D7FFE9E7C1
:104F5C0058080020A2940008A094000800F16001F9
:104F6C0008B50122FFF7BCFD014620B1BDE80840A1
:104F7C00014801F0FFB908BDBF94000810B5044604
:104F8C00FFF7ECFF94F86030204643F0040384F8FC
:104F9C006030FFF7E3FF94F8603020466FF3820334
:104FAC0084F86030BDE81040FFF7D8BF38B5044630
:104FBC000D4690F860300A0903F0FC0343F004033B
:104FCC0062F3071380F86030FFF7D8FF94F8603075
:104FDC00204665F3071384F86030BDE83840FFF7CE
:104FEC00CDBF38B504460D4690F860300A0903F081
:104FFC00F80343F0050362F3071380F86030FFF702
:10500C00BDFF94F86030204665F3071384F86030D8
:10501C00BDE83840FFF7B2BF08B50121FFF7C6FF66
:10502C00BDE808400220FCF7F5B941F08001FFF71C
:10503C00BDBF00000CB4F0B587B00CAC54F8045BE9
:10504C000646FFF7F2FF1222002101A800F08CFBAC
:10505C0023462A46102101A8009402F003FB0546C2
:10506C0001A8FBF76DF800240746A74237DD06AB15
:10507C00234413F8141C0B060AD4013479B30A29FF
:10508C00F3D00D29F1D0C9B23046FFF7AAFFECE7F7
:10509C0001F0600201AB402A234408D15B7801F097
:1050AC003F0103F07F0343EA81110234E6E701F08C
:1050BC007002602A0DD15A789B7801F01F0103F021
:1050CC007F0343EA013102F07F0341EA8311033489
:1050DC00D4E7064B06481B68D96800F031FA28461D
:1050EC0007B0BDE8F04002B0704700BFC403002019
:1050FC00D994000810B50446FFF7E8FC184801F0F5
:10510C00ADF92820FCF786F93823204684F8603066
:10511C00FFF734FF0120FCF77DF92046FFF72EFF47
:10512C000120FCF777F92046FFF728FF0120FCF758
:10513C0071F9022294F86030204662F3071384F868
:10514C006030FFF71BFF0120FCF764F920460C21AF
:10515C00FFF72CFF2046BDE81040FFF75DBF00BFF6
:10516C00A894000808B50320FCF766F900226FF03C
:10517C000B001146FCF77EF900226FF00A00114675
:10518C00FCF778F900226FF009001146FCF772F970
:10519C0000226FF004001146FCF76CF900226FF04E
:1051AC0003001146FCF766F900226FF0010011466E
:1051BC00FCF760F900224FF0FF301146FCF75AF96A
:1051CC00002203201146FCF755F9BDE808400022E7
:1051DC001D201146FCF74EB908B5FCF7F7F804484A
:1051EC00FFF723FD024C2046FFF766FDFBE700BFEF
:1051FC000C0300207047FEE7FEE7FEE7FEE7704772
:10520C007047704708B5FCF7F3F8BDE80840FCF7A9
:10521C00BAB900000148FCF7F7BE00BF88120020A5
:10522C0008B5044B02461C680B46E068024900F0C6
:10523C002DF9FEE7C4030020F1940008044B10B4D0
:10524C001C6802460B46E068024910BC00F01EB90F
:10525C00C403002015950008FBF728BE70B5064660
:10526C0088B038B3836D2BB342EA0122ADF80A2023
:10527C00142290F8644003AD02FB04340FCC0FC52C
:10528C000022236803AC2B60CDE9003294E80F00B8
:10529C00FBF7CAFC40F6FF7301220DF10A01304600
:1052AC00FEF7BAFA01230193079B009394E80F00D1
:1052BC00FBF7BAFC08B070BD00221146FFF7CEBF59
:1052CC000A460921FFF7CABF0A460A21FFF7C6BFE3
:1052DC000A460B21FFF7C2BF0A460C21FFF7BEBFDF
:1052EC000A460F21FFF7BABF2DE9F8430746884657
:1052FC001646994600249D1A0135E0B28219D2B2A5
:10530C00914501D2BDE8F883291A18F80020C9B2DA
:10531C003846FFF7A3FF0134EFE730B500230F2524
:10532C00934200DB30BDCC5C303CE4B2092C94BF22
:10533C00C454C5540133F3E770B5044688B00E4627
:10534C00FFF7BAFF00212046FFF7CAFFFF212046D6
:10535C00FFF7B6FF94F860102046FFF7B5FF012168
:10536C002046FFF7B9FF94F861102046FFF7B0FF15
:10537C0000230F22194604AD0DF803105A550133C2
:10538C00102BF9D132460A49684601F0D7F80DF1D5
:10539C00010128460322FFF7C0FF94F8633094F80C
:1053AC00622029462046FFF79FFF08B070BD00BF62
:1053BC00419500080023C0E90433704738B50C460A
:1053CC00054601F077F8611C491B90FBF1F303FBD8
:1053DC001100284438BD70B500230C2501684468C1
:1053EC000A689C4203DC4FF0FF33184670BD05FB86
:1053FC0003F68E59324446699642F6DB0133F0E7E8
:10540C0038B50D460446FFF7E6FF05B128600C22BF
:10541C00236802FB0033D3E901100144FFF7CEFFF0
:10542C0023691844E36820612069984203DC6369AE
:10543C000133636138BDA268C01A10442061F3E7E0
:10544C000F4B1A6842F001021A6059680D4A0A4063
:10545C005A601A6822F0847222F480321A601A6838
:10546C0022F480221A605A6822F4FE025A604FF429
:10547C001F029A604FF00062034B9A60704700BFA6
:10548C00001002400000FFF800ED00E00EB403B580
:10549C00014603AB054853F8042B0068019300F058
:1054AC00CDFC02B05DF804EB03B07047C4030020E0
:1054BC0070B50E461446054618B183690BB902F057
:1054CC00A7FA1C4B9C420BD16C68A3891B0711D506
:1054DC0023697BB1013E16F8011FA1B9084611E002
:1054EC00154B9C4201D1AC68EFE7144B9C4208BFB2
:1054FC00EC68EAE72146284602F014F90028E9D0C6
:10550C004FF0FF3070BDA368013B002BA36004DAA1
:10551C00A269934206DB0A2904D023685A1C226034
:10552C001970D8E72246284602F0AAF80130D2D1E9
:10553C00E6E700BF34990008549900081499000854
:10554C00024B0A4601461868FFF7B2BFC40300209D
:10555C0038B5074B05461C68E36B1BB9242000F0DB
:10556C00F3F8E063E16B2846BDE8384000F002B880
:10557C00C40300202DE9F0410C46804602F016FBD6
:10558C0021460746404602F015FB4669044606F2E2
:10559C006C76B20705D1642296FBF2F302FB13631F
:1055AC0013BB4FF4C87396FBF3F503FB1565B5FA03
:1055BC0085F56D093022624B02FB053501F0A0FE2A
:1055CC0001F0A0FE5F4B1B6823B37B68B3420DD187
:1055DC00D8E90001D7E908233E687EB9904271EB07
:1055EC0003030FDB012315E00125E3E7304601F04F
:1055FC00DFFD0028ECD14FF0FF330BE0904271EB54
:10560C00030357DBD7E91223904271EB0303B4BFBA
:10561C00012300232362236A3C20012B4FF4616396
:10562C000CBF396DB96A91FBF3F603FB161393FBB0
:10563C00F0F200FB123061682368891AA2681B1A09
:10564C00921B3B2B23606160A26035DD01316160F0
:10565C003C3B236063683B2B34DD0132A2603C3B56
:10566C006360A368172B33DDE269183B0132E261FA
:10567C00A269A3600132062AC8BF0022A261E268B7
:10568C0023690132E26055F823108A420DDD0133A3
:10569C000C2BA2EB0102E26005BF002263692361BF
:1056AC00013302BF22616361E26101F02AFE2046F0
:1056BC00BDE8F0810023ADE7002BCBDA0139616046
:1056CC003C33C6E7002BCCDA013AA2603C33C7E787
:1056DC00002BEADAE2691833013AE261A269A360AD
:1056EC00013A48BF0622A261E268013AE260002A50
:1056FC00DBD12369013B05D42361236955F82330A1
:10570C00E360D2E70B2362692361511E8B07616151
:10571C0002F26B7205D1642192FBF1F301FB1323AE
:10572C0063B94FF4C87192FBF1F301FB1323B3FA85
:10573C0083F35B0903F5B673E361DEE70123F9E755
:10574C00C495000880080020024B0146186800F040
:10575C00F3BA00BFC4030020024B0146186800F0E6
:10576C009FBA00BFC403002003460244934200D1F9
:10577C00704703F8011BF9E7F7B5016804463B29AC
:10578C0011D93C22684602F03FF8019A63680099EF
:10579C00002A0B446360BBBF3C3203F1FF33226031
:1057AC002260B8BF636061683B2911D93C2268460E
:1057BC0002F02AF8019AA3680099002A0B44A3600E
:1057CC00BBBF3C3203F1FF3362606260B8BFA360C1
:1057DC00A168172911D91822684602F015F8019A08
:1057EC00E3680099002A0B44E360BBBF183203F155
:1057FC00FF33A260A260B8BFE36021690B2911D905
:10580C000C22684602F000F8019A63690099002A9C
:10581C000B446361BBBF0C3203F1FF332261226185
:10582C00B8BF63616369990720D1642193FBF1F2DE
:10583C0001FB1232E2B94FF4C87103F26C7393FBA3
:10584C00F1F201FB1233002B14BF1C231D23E26861
:10585C00002A0FDC0B2664204FF4C875324FD4F8A5
:10586C000CC0BCF1000F14DD03B0F0BD1C23EEE73F
:10587C001D23ECE74FF0000C64254FF4C8762A4F3B
:10588C00D4E90312012A2FD057F8220081422EDCD2
:10589C00EAE7216901392161013114D16369591E8B
:1058AC008A07C4E9046117D191FBF0F200FB1211D5
:1058BC00A1B903F26B7393FBF5F205FB1233002BCA
:1058CC0014BF1C231D232269012A0CBF1A4657F84A
:1058DC0022206244E260C2E71C23F4E71D23F2E7B6
:1058EC001C23CDE71D23CBE78B42BDDA18460132D2
:1058FC00091A0C2AE1602261C2D163695A1C910712
:10590C00C4E904C2ECD192FBF5F105FB1122002A8B
:10591C00E8D103F26D7393FBF6F206FB1233002B06
:10592C0014BF1C231D23ABE7649500082DE9F04F31
:10593C0089B0064602F03AF94FF03C0A80463046F0
:10594C00FFF71AFFD6E900300AFB003A4FF4616307
:10595C00B068BD4A03FB00AAD6E9034352F82320E2
:10596C00013C012B4FEAEA7B1444756911DDA90750
:10597C000FD1642295FBF2F302FB135343B94FF49E
:10598C00C87205F26C7191FBF2F302FB131303B9AD
:10599C00013444F6206205F51C5310339342F46134
:1059AC0000F27981462D40F38480462340F26D1736
:1059BC0064214FF4C8709A0775D193FBF1F201FB87
:1059CC001232002A72D103F26C7C9CFBF0F200FBC9
:1059DC0012C2002A14BF3A464FF4B77201339D42EB
:1059EC001444E8D1994B63431AEB03014BEBE3727C
:1059FC00CDE9001201F084FC01F084FC944BD3F847
:105A0C000090B9F1000F45D0D6F8209070694F4640
:105A1C00D8F80430012F00F26C70A8BF0127834224
:105A2C0040F08980D8F85010D8F828000A46CB17D7
:105A3C00CDE90423D8E91223CDE90623121A63EB2E
:105A4C00E07392469B46DDE90023524573EB0B0C49
:105A5C00CDE902AB76DAD8E90823DDE904ABB2EB89
:105A6C000A0A63EB0B0BD8F80030002B79D0DDE978
:105A7C000023524573EB0B0307DBDDE90223DDE961
:105A8C0000AB92457BEB030371DBB9F1000F4FF0D8
:105A9C00000971DADDE900ABD8F828301AEB030AFB
:105AAC004BEBE37BB4E040F26D1297E74FF4B77227
:105ABC0094E797D0452340F26D1764214FF4C870DA
:105ACC0012E062BB93FBF1F201FB123252BB03F208
